{
  "_format": "hh-sol-artifact-1",
  "contractName": "AMMFactory",
  "sourceName": "contracts/AMMFactory.sol",
  "abi": [
    {
      "anonymous": false,
      "inputs": [
        {
          "indexed": true,
          "internalType": "address",
          "name": "token0",
          "type": "address"
        },
        {
          "indexed": true,
          "internalType": "address",
          "name": "token1",
          "type": "address"
        },
        {
          "indexed": false,
          "internalType": "address",
          "name": "pair",
          "type": "address"
        }
      ],
      "name": "PairCreated",
      "type": "event"
    },
    {
      "inputs": [
        {
          "internalType": "uint256",
          "name": "",
          "type": "uint256"
        }
      ],
      "name": "allPairs",
      "outputs": [
        {
          "internalType": "address",
          "name": "",
          "type": "address"
        }
      ],
      "stateMutability": "view",
      "type": "function"
    },
    {
      "inputs": [],
      "name": "allPairsLength",
      "outputs": [
        {
          "internalType": "uint256",
          "name": "",
          "type": "uint256"
        }
      ],
      "stateMutability": "view",
      "type": "function"
    },
    {
      "inputs": [
        {
          "internalType": "address",
          "name": "tokenA",
          "type": "address"
        },
        {
          "internalType": "address",
          "name": "tokenB",
          "type": "address"
        }
      ],
      "name": "createPair",
      "outputs": [
        {
          "internalType": "address",
          "name": "pair",
          "type": "address"
        }
      ],
      "stateMutability": "nonpayable",
      "type": "function"
    },
    {
      "inputs": [
        {
          "internalType": "address",
          "name": "",
          "type": "address"
        },
        {
          "internalType": "address",
          "name": "",
          "type": "address"
        }
      ],
      "name": "getPair",
      "outputs": [
        {
          "internalType": "address",
          "name": "",
          "type": "address"
        }
      ],
      "stateMutability": "view",
      "type": "function"
    }
  ],
  "bytecode": "0x6080806040523461001657611d33908161001c8239f35b600080fdfe6040608081526004908136101561001557600080fd5b600091823560e01c9081631e3dd18b14610308578163574f2ba3146102e9578163c9c653961461009c575063e6a439051461004f57600080fd5b346100985780600319360112610098576020918161006b61039d565b916100746103b8565b6001600160a01b039384168252818652828220908416825285522054915191168152f35b5080fd5b8383346100985780600319360112610098576100b661039d565b6100be6103b8565b906001600160a01b03908183168282168082146102a657101561029e5781905b1690811561025b5781855260209585875281858720941693848752875281858720541661021857845161192f8082019082821067ffffffffffffffff83111761020557879183916103cf8339868152878b82015203019087f080156101fb5782169583815280885285812085825288528581206bffffffffffffffffffffffff60a01b9088828254161790558189528682208583528952878783209182541617905560015491680100000000000000008310156101e85750508060016101a79201600155610350565b819291549060031b9187831b921b19161790557fa92a2b95c8d8436f6ac4c673c61487364f877efb9534d4296fad8ef904546c94858451868152a351908152f35b634e487b7160e01b825260419052602490fd5b85513d88823e3d90fd5b634e487b7160e01b895260418452602489fd5b845162461bcd60e51b8152908101879052601760248201527f414d4d466163746f72793a20504149525f4558495354530000000000000000006044820152606490fd5b835162461bcd60e51b8152602081880152601860248201527f414d4d466163746f72793a205a45524f5f4144445245535300000000000000006044820152606490fd5b9181906100de565b855162461bcd60e51b81526020818a0152601f60248201527f414d4d466163746f72793a204944454e544943414c5f414444524553534553006044820152606490fd5b5050346100985781600319360112610098576020906001549051908152f35b90503461034c57602036600319011261034c5735916001548310156103495750610333602092610350565b905491519160018060a01b039160031b1c168152f35b80fd5b8280fd5b6001548110156103875760016000527fb10e2d527612073b26eecdfd717e6a320cf44b4afac2b0732d9fcbe2b7fa0cf60190600090565b634e487b7160e01b600052603260045260246000fd5b600435906001600160a01b03821682036103b357565b600080fd5b602435906001600160a01b03821682036103b35756fe60e034620003cd57601f906001600160401b0390601f196200192f3881900385810183168401919085831185841017620002d1578085926040948552833981010312620003cd576200005182620003f2565b92620000616020809401620003f2565b946200006c620003d2565b600b81526a20a6a696a6282a37b5b2b760a91b858201526200008d620003d2565b91600392838152620414c560ec1b878201528251858111620002d15784546001948582811c92168015620003c2575b8a831014620003ac57818584931162000356575b508990858311600114620002f357600092620002e7575b505060001982871b1c191690841b1784555b8051948511620002d15760049687548481811c91168015620002c6575b82821014620002b15783811162000266575b5080928611600114620001fa575084955090849291600095620001ee575b50501b92600019911b1c19161790555b336080526001600160a01b038281169082161015620001e857905b60c05260a0526040516115279081620004088239608051816102d8015260a05181818161012d015281816104f8015281816107a701528181610ad101528181610b910152610fab015260c0518181816101740152818161029401528181610525015281816107ec01528181610a9f0152610bd50152f35b62000171565b01519350388062000146565b939295859081168860005285600020956000905b898383106200024b575050501062000230575b50505050811b01905562000156565b01519060f884600019921b161c191690553880808062000221565b8587015189559097019694850194889350908101906200020e565b88600052816000208480890160051c820192848a10620002a7575b0160051c019085905b8281106200029a57505062000128565b600081550185906200028a565b9250819262000281565b602289634e487b7160e01b6000525260246000fd5b90607f169062000116565b634e487b7160e01b600052604160045260246000fd5b015190503880620000e7565b908987941691886000528b6000209260005b8d8282106200033f575050841162000326575b505050811b018455620000f9565b015160001983891b60f8161c1916905538808062000318565b8385015186558a9790950194938401930162000305565b90915086600052896000208580850160051c8201928c8610620003a2575b918891869594930160051c01915b82811062000392575050620000d0565b6000815585945088910162000382565b9250819262000374565b634e487b7160e01b600052602260045260246000fd5b91607f1691620000bc565b600080fd5b60408051919082016001600160401b03811183821017620002d157604052565b51906001600160a01b0382168203620003cd5756fe608060408181526004908136101561001657600080fd5b600092833560e01c90816306fdde03146110a9575080630902f1ac14611084578063095ea7b314610fda5780630dfe168114610f9657806318160ddd14610f7757806323b872dd14610e84578063313ce56714610e68578063443cb4bc14610e495780635a76f25e14610e2a5780636a62784214610b445780636d9a640a1461073757806370a082311461070057806389afcb441461043c57806395d89b4114610338578063a9059cbb14610307578063c45a0155146102c3578063d21220a71461027f578063dd62ed3e146102325763fff6cae9146100f557600080fd5b346101de57826003193601126101de5780516370a0823160e01b80825230848301526001600160a01b039390919060209081836024817f00000000000000000000000000000000000000000000000000000000000000008a165afa9283156102285787936101f2575b50602482939486519788938492835230908301527f0000000000000000000000000000000000000000000000000000000000000000165afa9283156101e9575084926101b3575b506101b0925061134d565b80f35b90915082813d83116101e2575b6101ca8183611214565b810103126101de576101b0915190386101a5565b8280fd5b503d6101c0565b513d86823e3d90fd5b9180935082813d8311610221575b61020a8183611214565b8101031261021d5790519190602461015e565b8680fd5b503d610200565b85513d89823e3d90fd5b83823461027b578060031936011261027b57806020926102506111e3565b6102586111fe565b6001600160a01b0391821683526001865283832091168252845220549051908152f35b5080fd5b83823461027b578160031936011261027b57517f00000000000000000000000000000000000000000000000000000000000000006001600160a01b03168152602090f35b83823461027b578160031936011261027b57517f00000000000000000000000000000000000000000000000000000000000000006001600160a01b03168152602090f35b83823461027b578060031936011261027b576020906103316103276111e3565b602435903361124c565b5160018152f35b5082903461027b578160031936011261027b57805191809380549160019083821c92828516948515610432575b602095868610811461041f578589529081156103fb57506001146103a3575b61039f8787610395828c0383611214565b519182918261119a565b0390f35b81529295507f8a35acfbc15ff81a39ae7d344fd709f28e8600b4aa8c65c6b64bfe7fe36bd19b5b8284106103e8575050508261039f9461039592820101948680610384565b80548685018801529286019281016103ca565b60ff19168887015250505050151560051b83010192506103958261039f8680610384565b634e487b7160e01b845260228352602484fd5b93607f1693610365565b50913461061b5760208060031936011261027b576104586111e3565b600554926006549430825281845261048f6104836104836104888a862054986002549384918b611394565b6113a7565b9888611394565b94861515806106f7575b156106b457301561069e573083528285528783205481811061067257908084923084528388520389832055806002540360025588519081527fddf252ad1be2c89b69c2b068fc378daa952ba7f163c4a11628f55a4df523b3ef863092a37f0000000000000000000000000000000000000000000000000000000000000000916105238785856113c7565b7f000000000000000000000000000000000000000000000000000000000000000061054f8786836113c7565b8851926370a0823160e01b8085523082860152878560248160018060a01b03809a165afa94851561066857908892918596610630575b50602490878d51958694859384523090840152165afa9182156106255780926105f0575b50506105b49161134d565b855191858352848484015216907fdccd412f0b1252819cb1fd330b93224ca42612892bb3f4f789976e6d81936496863392a38351928352820152f35b9091508582813d831161061e575b6106088183611214565b8101031261061b5750516105b4386105a9565b80fd5b503d6105fe565b8951903d90823e3d90fd5b838193949297503d8311610661575b6106498183611214565b8101031261065d5751938791906024610585565b8380fd5b503d61063f565b8b513d86823e3d90fd5b885163391434e360e21b8152308185019081526020810192909252604082018390529081906060010390fd5b50602491875191634b637e8f60e11b8352820152fd5b875162461bcd60e51b8152808301869052601d60248201527f494e53554646494349454e545f4c49515549444954595f4255524e45440000006044820152606490fd5b50851515610499565b83823461027b57602036600319011261027b5760209181906001600160a01b036107286111e3565b16815280845220549051908152f35b50346101de5760603660031901126101de576001600160a01b0360443581811693602493843593823593919291878103610b4057600554851080610b35575b15610afa5784610aca575b8580610a99575b505082516370a0823160e01b8082523084830152602092919083828a817f000000000000000000000000000000000000000000000000000000000000000087165afa918215610a8f579084918c93610a5a575b5089875180958193825230898301527f0000000000000000000000000000000000000000000000000000000000000000165afa918215610a50578a92610a1d575b506005549361082b8786611387565b821115610a165761084561083f8887611387565b83611387565b985b600654956108558a88611387565b851115610a0f5761086f6108698b89611387565b86611387565b965b8b15801581610a06575b156109c4576103e8908187029087820483148815171561099d57908e9160038302928304600314171561099d57906108b291611387565b908088029088820414881517156109b15760038a02908a82046003148b15171561099d57916108e86108ee926108f49594611387565b90611394565b92611394565b90620f42409182810292818404149015171561098b57106109545750509061091b9161134d565b825195865285015283015260608201527fd78ad95fa46c994b6551d0da85fc275fe613ce37657fb8d5e3d130840159d82260803392a380f35b865162461bcd60e51b81529182018590526012908201527112d7d0d3d394d510539517d253959053125160721b6044820152606490fd5b634e487b7160e01b8e5260118452828efd5b5050634e487b7160e01b8f5260118552838ffd5b50634e487b7160e01b8f5260118552838ffd5b895162461bcd60e51b81528086018990526019818601527f494e53554646494349454e545f494e5055545f414d4f554e54000000000000006044820152606490fd5b5088151561087b565b8c96610871565b8a98610847565b9091508281813d8311610a49575b610a358183611214565b81010312610a455751903861081c565b8980fd5b503d610a2b565b85513d8c823e3d90fd5b8281939294503d8311610a88575b610a728183611214565b81010312610a845783905191386107db565b8a80fd5b503d610a68565b86513d8d823e3d90fd5b610ac3917f00000000000000000000000000000000000000000000000000000000000000006113c7565b3885610788565b610af585827f00000000000000000000000000000000000000000000000000000000000000006113c7565b610781565b835162461bcd60e51b815260208185015260168189015275494e53554646494349454e545f4c495155494449545960501b6044820152606490fd5b506006548610610776565b8880fd5b50346101de576020928360031936011261061b57610b606111e3565b60055460065484516370a0823160e01b808252308289015293966001600160a01b03959294939192909189846024817f00000000000000000000000000000000000000000000000000000000000000008b165afa938415610df1578294610dfb575b508751948552308386015289856024818a7f0000000000000000000000000000000000000000000000000000000000000000165afa948515610df1578295610dc2575b50610c108185611387565b96610c1b8787611387565b96600254928315600014610d8f575050610c358789611394565b836003821115610d8157508060019080821c828101809111610d6e5791905b838310610d4e575050505b995b8a15610d0b5716928315610cf4575090610c8189610cc09695949361132a565b600255818152808a528781208981540190557fddf252ad1be2c89b69c2b068fc378daa952ba7f163c4a11628f55a4df523b3ef8a89518b8152a361134d565b8251918252848201527f4c209b5fc8ad50758f13e2e1088ba56a560dff690a1c6fef26394f4c03821c4f823392a251908152f35b885163ec442f0560e01b8152908101839052602490fd5b895162461bcd60e51b81528086018d9052601d60248201527f494e53554646494349454e545f4c49515549444954595f4d494e5445440000006044820152606490fd5b90919250610d6583610d6081846113a7565b61132a565b821c9190610c54565b634e487b7160e01b875260118852602487fd5b9015610c5f57506001610c5f565b610da0610dab91610483868d611394565b91610483858b611394565b80821015610dbb57505b99610c61565b9050610db5565b9094508981813d8311610dea575b610dda8183611214565b8101031261027b57519338610c05565b503d610dd0565b88513d84823e3d90fd5b9093508981813d8311610e23575b610e138183611214565b8101031261027b57519238610bc2565b503d610e09565b83823461027b578160031936011261027b576020906006549051908152f35b83823461027b578160031936011261027b576020906005549051908152f35b83823461027b578160031936011261027b576020905160128152f35b50913461061b57606036600319011261061b57610e9f6111e3565b610ea76111fe565b916044359360018060a01b038316808352600160205286832033845260205286832054916000198310610ee3575b60208861033189898961124c565b868310610f4b578115610f34573315610f1d5750825260016020908152868320338452815291869020908590039055829061033138610ed5565b8751634a1406b160e11b8152908101849052602490fd5b875163e602df0560e01b8152908101849052602490fd5b8751637dc7a0d960e11b8152339181019182526020820193909352604081018790528291506060010390fd5b83823461027b578160031936011261027b576020906002549051908152f35b83823461027b578160031936011261027b57517f00000000000000000000000000000000000000000000000000000000000000006001600160a01b03168152602090f35b5090346101de57816003193601126101de57610ff46111e3565b60243590331561106d576001600160a01b031691821561105657508083602095338152600187528181208582528752205582519081527f8c5be1e5ebec7d5bd14f71427d1e84f3dd0314c0f7b2291e5b200ac8c7c3b925843392a35160018152f35b8351634a1406b160e11b8152908101859052602490fd5b835163e602df0560e01b8152808401869052602490fd5b50823461061b578060031936011261061b575060055460065482519182526020820152f35b9290503461065d578360031936011261065d57600354600181811c9186908281168015611190575b602095868610821461117d575084885290811561115b5750600114611102575b61039f8686610395828b0383611214565b929550600383527fc2575a0e9e593c00f959f8c92f12db2869c3395a3b0502d05e2516446f71f85b5b828410611148575050508261039f946103959282010194386110f1565b805486850188015292860192810161112b565b60ff191687860152505050151560051b83010192506103958261039f386110f1565b634e487b7160e01b845260229052602483fd5b93607f16936110d1565b6020808252825181830181905290939260005b8281106111cf57505060409293506000838284010152601f8019910116010190565b8181018601518482016040015285016111ad565b600435906001600160a01b03821682036111f957565b600080fd5b602435906001600160a01b03821682036111f957565b90601f8019910116810190811067ffffffffffffffff82111761123657604052565b634e487b7160e01b600052604160045260246000fd5b916001600160a01b0380841692831561131157169283156112f857600090838252816020526040822054908382106112c6575091604082827fddf252ad1be2c89b69c2b068fc378daa952ba7f163c4a11628f55a4df523b3ef958760209652828652038282205586815220818154019055604051908152a3565b60405163391434e360e21b81526001600160a01b03919091166004820152602481019190915260448101839052606490fd5b60405163ec442f0560e01b815260006004820152602490fd5b604051634b637e8f60e11b815260006004820152602490fd5b9190820180921161133757565b634e487b7160e01b600052601160045260246000fd5b6040907fcf2aa50876cdfbb541206f89af0ee78d44a2abf8d328e37fa4917f982149848a92816005558060065582519182526020820152a1565b9190820391821161133757565b8181029291811591840414171561133757565b81156113b1570490565b634e487b7160e01b600052601260045260246000fd5b60405163a9059cbb60e01b60208083019182526001600160a01b039094166024830152604480830195909552938152919267ffffffffffffffff92608081018481118282101761123657604052600092839283809351925af1913d156114e9573d9081116114d55760405190611446601f8201601f1916860183611214565b81523d828583013e5b82611495575b50501561145f5750565b6064906040519062461bcd60e51b82526004820152600f60248201526e1514905394d1915497d19052531151608a1b6044820152fd5b80519250821591908483156114b1575b50505090503880611455565b91938180945001031261027b5782015190811515820361061b5750803880846114a5565b634e487b7160e01b82526041600452602482fd5b50606061144f56fea26469706673582212203e1ef9c2184ec469d7acf67c222400d0f26a2ec51add47c105b909cf8600fcbd64736f6c63430008140033a2646970667358221220ba6b8f0e7863d12b6ced95db7486221f9d4aa6ef6eb464a5306df25125744a5c64736f6c63430008140033",
  "linkReferences": {},
  "deployedLinkReferences": {}
}