{
  "_format": "hh-sol-artifact-1",
  "contractName": "AMMPair",
  "sourceName": "contracts/AMMPair.sol",
  "abi": [
    {
      "inputs": [
        {
          "internalType": "address",
          "name": "_token0",
          "type": "address"
        },
        {
          "internalType": "address",
          "name": "_token1",
          "type": "address"
        }
      ],
      "stateMutability": "nonpayable",
      "type": "constructor"
    },
    {
      "inputs": [
        {
          "internalType": "address",
          "name": "spender",
          "type": "address"
        },
        {
          "internalType": "uint256",
          "name": "allowance",
          "type": "uint256"
        },
        {
          "internalType": "uint256",
          "name": "needed",
          "type": "uint256"
        }
      ],
      "name": "ERC20InsufficientAllowance",
      "type": "error"
    },
    {
      "inputs": [
        {
          "internalType": "address",
          "name": "sender",
          "type": "address"
        },
        {
          "internalType": "uint256",
          "name": "balance",
          "type": "uint256"
        },
        {
          "internalType": "uint256",
          "name": "needed",
          "type": "uint256"
        }
      ],
      "name": "ERC20InsufficientBalance",
      "type": "error"
    },
    {
      "inputs": [
        {
          "internalType": "address",
          "name": "approver",
          "type": "address"
        }
      ],
      "name": "ERC20InvalidApprover",
      "type": "error"
    },
    {
      "inputs": [
        {
          "internalType": "address",
          "name": "receiver",
          "type": "address"
        }
      ],
      "name": "ERC20InvalidReceiver",
      "type": "error"
    },
    {
      "inputs": [
        {
          "internalType": "address",
          "name": "sender",
          "type": "address"
        }
      ],
      "name": "ERC20InvalidSender",
      "type": "error"
    },
    {
      "inputs": [
        {
          "internalType": "address",
          "name": "spender",
          "type": "address"
        }
      ],
      "name": "ERC20InvalidSpender",
      "type": "error"
    },
    {
      "anonymous": false,
      "inputs": [
        {
          "indexed": true,
          "internalType": "address",
          "name": "owner",
          "type": "address"
        },
        {
          "indexed": true,
          "internalType": "address",
          "name": "spender",
          "type": "address"
        },
        {
          "indexed": false,
          "internalType": "uint256",
          "name": "value",
          "type": "uint256"
        }
      ],
      "name": "Approval",
      "type": "event"
    },
    {
      "anonymous": false,
      "inputs": [
        {
          "indexed": true,
          "internalType": "address",
          "name": "sender",
          "type": "address"
        },
        {
          "indexed": false,
          "internalType": "uint256",
          "name": "amount0",
          "type": "uint256"
        },
        {
          "indexed": false,
          "internalType": "uint256",
          "name": "amount1",
          "type": "uint256"
        },
        {
          "indexed": true,
          "internalType": "address",
          "name": "to",
          "type": "address"
        }
      ],
      "name": "Burn",
      "type": "event"
    },
    {
      "anonymous": false,
      "inputs": [
        {
          "indexed": true,
          "internalType": "address",
          "name": "sender",
          "type": "address"
        },
        {
          "indexed": false,
          "internalType": "uint256",
          "name": "amount0",
          "type": "uint256"
        },
        {
          "indexed": false,
          "internalType": "uint256",
          "name": "amount1",
          "type": "uint256"
        }
      ],
      "name": "Mint",
      "type": "event"
    },
    {
      "anonymous": false,
      "inputs": [
        {
          "indexed": true,
          "internalType": "address",
          "name": "sender",
          "type": "address"
        },
        {
          "indexed": false,
          "internalType": "uint256",
          "name": "amount0In",
          "type": "uint256"
        },
        {
          "indexed": false,
          "internalType": "uint256",
          "name": "amount1In",
          "type": "uint256"
        },
        {
          "indexed": false,
          "internalType": "uint256",
          "name": "amount0Out",
          "type": "uint256"
        },
        {
          "indexed": false,
          "internalType": "uint256",
          "name": "amount1Out",
          "type": "uint256"
        },
        {
          "indexed": true,
          "internalType": "address",
          "name": "to",
          "type": "address"
        }
      ],
      "name": "Swap",
      "type": "event"
    },
    {
      "anonymous": false,
      "inputs": [
        {
          "indexed": false,
          "internalType": "uint256",
          "name": "reserve0",
          "type": "uint256"
        },
        {
          "indexed": false,
          "internalType": "uint256",
          "name": "reserve1",
          "type": "uint256"
        }
      ],
      "name": "Sync",
      "type": "event"
    },
    {
      "anonymous": false,
      "inputs": [
        {
          "indexed": true,
          "internalType": "address",
          "name": "from",
          "type": "address"
        },
        {
          "indexed": true,
          "internalType": "address",
          "name": "to",
          "type": "address"
        },
        {
          "indexed": false,
          "internalType": "uint256",
          "name": "value",
          "type": "uint256"
        }
      ],
      "name": "Transfer",
      "type": "event"
    },
    {
      "inputs": [
        {
          "internalType": "address",
          "name": "owner",
          "type": "address"
        },
        {
          "internalType": "address",
          "name": "spender",
          "type": "address"
        }
      ],
      "name": "allowance",
      "outputs": [
        {
          "internalType": "uint256",
          "name": "",
          "type": "uint256"
        }
      ],
      "stateMutability": "view",
      "type": "function"
    },
    {
      "inputs": [
        {
          "internalType": "address",
          "name": "spender",
          "type": "address"
        },
        {
          "internalType": "uint256",
          "name": "value",
          "type": "uint256"
        }
      ],
      "name": "approve",
      "outputs": [
        {
          "internalType": "bool",
          "name": "",
          "type": "bool"
        }
      ],
      "stateMutability": "nonpayable",
      "type": "function"
    },
    {
      "inputs": [
        {
          "internalType": "address",
          "name": "account",
          "type": "address"
        }
      ],
      "name": "balanceOf",
      "outputs": [
        {
          "internalType": "uint256",
          "name": "",
          "type": "uint256"
        }
      ],
      "stateMutability": "view",
      "type": "function"
    },
    {
      "inputs": [
        {
          "internalType": "address",
          "name": "to",
          "type": "address"
        }
      ],
      "name": "burn",
      "outputs": [
        {
          "internalType": "uint256",
          "name": "amount0",
          "type": "uint256"
        },
        {
          "internalType": "uint256",
          "name": "amount1",
          "type": "uint256"
        }
      ],
      "stateMutability": "nonpayable",
      "type": "function"
    },
    {
      "inputs": [],
      "name": "decimals",
      "outputs": [
        {
          "internalType": "uint8",
          "name": "",
          "type": "uint8"
        }
      ],
      "stateMutability": "view",
      "type": "function"
    },
    {
      "inputs": [],
      "name": "factory",
      "outputs": [
        {
          "internalType": "address",
          "name": "",
          "type": "address"
        }
      ],
      "stateMutability": "view",
      "type": "function"
    },
    {
      "inputs": [],
      "name": "getReserves",
      "outputs": [
        {
          "internalType": "uint256",
          "name": "_reserve0",
          "type": "uint256"
        },
        {
          "internalType": "uint256",
          "name": "_reserve1",
          "type": "uint256"
        }
      ],
      "stateMutability": "view",
      "type": "function"
    },
    {
      "inputs": [
        {
          "internalType": "address",
          "name": "to",
          "type": "address"
        }
      ],
      "name": "mint",
      "outputs": [
        {
          "internalType": "uint256",
          "name": "liquidity",
          "type": "uint256"
        }
      ],
      "stateMutability": "nonpayable",
      "type": "function"
    },
    {
      "inputs": [],
      "name": "name",
      "outputs": [
        {
          "internalType": "string",
          "name": "",
          "type": "string"
        }
      ],
      "stateMutability": "view",
      "type": "function"
    },
    {
      "inputs": [],
      "name": "reserve0",
      "outputs": [
        {
          "internalType": "uint256",
          "name": "",
          "type": "uint256"
        }
      ],
      "stateMutability": "view",
      "type": "function"
    },
    {
      "inputs": [],
      "name": "reserve1",
      "outputs": [
        {
          "internalType": "uint256",
          "name": "",
          "type": "uint256"
        }
      ],
      "stateMutability": "view",
      "type": "function"
    },
    {
      "inputs": [
        {
          "internalType": "uint256",
          "name": "amount0Out",
          "type": "uint256"
        },
        {
          "internalType": "uint256",
          "name": "amount1Out",
          "type": "uint256"
        },
        {
          "internalType": "address",
          "name": "to",
          "type": "address"
        }
      ],
      "name": "swap",
      "outputs": [],
      "stateMutability": "nonpayable",
      "type": "function"
    },
    {
      "inputs": [],
      "name": "symbol",
      "outputs": [
        {
          "internalType": "string",
          "name": "",
          "type": "string"
        }
      ],
      "stateMutability": "view",
      "type": "function"
    },
    {
      "inputs": [],
      "name": "token0",
      "outputs": [
        {
          "internalType": "address",
          "name": "",
          "type": "address"
        }
      ],
      "stateMutability": "view",
      "type": "function"
    },
    {
      "inputs": [],
      "name": "token1",
      "outputs": [
        {
          "internalType": "address",
          "name": "",
          "type": "address"
        }
      ],
      "stateMutability": "view",
      "type": "function"
    },
    {
      "inputs": [],
      "name": "totalSupply",
      "outputs": [
        {
          "internalType": "uint256",
          "name": "",
          "type": "uint256"
        }
      ],
      "stateMutability": "view",
      "type": "function"
    },
    {
      "inputs": [
        {
          "internalType": "address",
          "name": "to",
          "type": "address"
        },
        {
          "internalType": "uint256",
          "name": "value",
          "type": "uint256"
        }
      ],
      "name": "transfer",
      "outputs": [
        {
          "internalType": "bool",
          "name": "",
          "type": "bool"
        }
      ],
      "stateMutability": "nonpayable",
      "type": "function"
    },
    {
      "inputs": [
        {
          "internalType": "address",
          "name": "from",
          "type": "address"
        },
        {
          "internalType": "address",
          "name": "to",
          "type": "address"
        },
        {
          "internalType": "uint256",
          "name": "value",
          "type": "uint256"
        }
      ],
      "name": "transferFrom",
      "outputs": [
        {
          "internalType": "bool",
          "name": "",
          "type": "bool"
        }
      ],
      "stateMutability": "nonpayable",
      "type": "function"
    }
  ],
  "bytecode": "0x60e060405234801561001057600080fd5b5060405161283a38038061283a83398181016040528101906100329190610203565b6040518060400160405280600b81526020017f414d4d2d4c50546f6b656e0000000000000000000000000000000000000000008152506040518060400160405280600381526020017f414c50000000000000000000000000000000000000000000000000000000000081525081600390816100ad9190610493565b5080600490816100bd9190610493565b5050503373ffffffffffffffffffffffffffffffffffffffff1660808173ffffffffffffffffffffffffffffffffffffffff16815250508073ffffffffffffffffffffffffffffffffffffffff168273ffffffffffffffffffffffffffffffffffffffff161061012e578082610131565b81815b8073ffffffffffffffffffffffffffffffffffffffff1660c09073ffffffffffffffffffffffffffffffffffffffff168152508173ffffffffffffffffffffffffffffffffffffffff1660a09073ffffffffffffffffffffffffffffffffffffffff1681525050505050610565565b600080fd5b600073ffffffffffffffffffffffffffffffffffffffff82169050919050565b60006101d0826101a5565b9050919050565b6101e0816101c5565b81146101eb57600080fd5b50565b6000815190506101fd816101d7565b92915050565b6000806040838503121561021a576102196101a0565b5b6000610228858286016101ee565b9250506020610239858286016101ee565b9150509250929050565b600081519050919050565b7f4e487b7100000000000000000000000000000000000000000000000000000000600052604160045260246000fd5b7f4e487b7100000000000000000000000000000000000000000000000000000000600052602260045260246000fd5b600060028204905060018216806102c457607f821691505b6020821081036102d7576102d661027d565b5b50919050565b60008190508160005260206000209050919050565b60006020601f8301049050919050565b600082821b905092915050565b60006008830261033f7fffffffffffffffffffffffffffffffffffffffffffffffffffffffffffffffff82610302565b6103498683610302565b95508019841693508086168417925050509392505050565b6000819050919050565b6000819050919050565b600061039061038b61038684610361565b61036b565b610361565b9050919050565b6000819050919050565b6103aa83610375565b6103be6103b682610397565b84845461030f565b825550505050565b600090565b6103d36103c6565b6103de8184846103a1565b505050565b5b81811015610402576103f76000826103cb565b6001810190506103e4565b5050565b601f82111561044757610418816102dd565b610421846102f2565b81016020851015610430578190505b61044461043c856102f2565b8301826103e3565b50505b505050565b600082821c905092915050565b600061046a6000198460080261044c565b1980831691505092915050565b60006104838383610459565b9150826002028217905092915050565b61049c82610243565b67ffffffffffffffff8111156104b5576104b461024e565b5b6104bf82546102ac565b6104ca828285610406565b600060209050601f8311600181146104fd57600084156104eb578287015190505b6104f58582610477565b86555061055d565b601f19841661050b866102dd565b60005b828110156105335784890151825560018201915060208501945060208101905061050e565b86831015610550578489015161054c601f891682610459565b8355505b6001600288020188555050505b505050505050565b60805160a05160c0516122606105da6000396000818161059e01528181610807015281816108d001528181610c9301528181610d5b0152610f4c01526000818161047d01528181610500015281816107d20152818161083201528181610c680152610cbd01526000610f2801526122606000f3fe608060405234801561001057600080fd5b50600436106101165760003560e01c80636a627842116100a257806395d89b411161007157806395d89b41146102fb578063a9059cbb14610319578063c45a015514610349578063d21220a714610367578063dd62ed3e1461038557610116565b80636a6278421461024e5780636d9a640a1461027e57806370a082311461029a57806389afcb44146102ca57610116565b806318160ddd116100e957806318160ddd146101a657806323b872dd146101c4578063313ce567146101f4578063443cb4bc146102125780635a76f25e1461023057610116565b806306fdde031461011b5780630902f1ac14610139578063095ea7b3146101585780630dfe168114610188575b600080fd5b6101236103b5565b6040516101309190611973565b60405180910390f35b610141610447565b60405161014f9291906119ae565b60405180910390f35b610172600480360381019061016d9190611a66565b610458565b60405161017f9190611ac1565b60405180910390f35b61019061047b565b60405161019d9190611aeb565b60405180910390f35b6101ae61049f565b6040516101bb9190611b06565b60405180910390f35b6101de60048036038101906101d99190611b21565b6104a9565b6040516101eb9190611ac1565b60405180910390f35b6101fc6104d8565b6040516102099190611b90565b60405180910390f35b61021a6104e1565b6040516102279190611b06565b60405180910390f35b6102386104e7565b6040516102459190611b06565b60405180910390f35b61026860048036038101906102639190611bab565b6104ed565b6040516102759190611b06565b60405180910390f35b61029860048036038101906102939190611bd8565b610773565b005b6102b460048036038101906102af9190611bab565b610b67565b6040516102c19190611b06565b60405180910390f35b6102e460048036038101906102df9190611bab565b610baf565b6040516102f29291906119ae565b60405180910390f35b610303610e71565b6040516103109190611973565b60405180910390f35b610333600480360381019061032e9190611a66565b610f03565b6040516103409190611ac1565b60405180910390f35b610351610f26565b60405161035e9190611aeb565b60405180910390f35b61036f610f4a565b60405161037c9190611aeb565b60405180910390f35b61039f600480360381019061039a9190611c2b565b610f6e565b6040516103ac9190611b06565b60405180910390f35b6060600380546103c490611c9a565b80601f01602080910402602001604051908101604052809291908181526020018280546103f090611c9a565b801561043d5780601f106104125761010080835404028352916020019161043d565b820191906000526020600020905b81548152906001019060200180831161042057829003601f168201915b5050505050905090565b600080600554915060065490509091565b600080610463610ff5565b9050610470818585610ffd565b600191505092915050565b7f000000000000000000000000000000000000000000000000000000000000000081565b6000600254905090565b6000806104b4610ff5565b90506104c185828561100f565b6104cc8585856110a4565b60019150509392505050565b60006012905090565b60055481565b60065481565b60008060006005546006549150915060007f000000000000000000000000000000000000000000000000000000000000000073ffffffffffffffffffffffffffffffffffffffff166370a08231306040518263ffffffff1660e01b81526004016105579190611aeb565b602060405180830381865afa158015610574573d6000803e3d6000fd5b505050506040513d601f19601f820116820180604052508101906105989190611ce0565b905060007f000000000000000000000000000000000000000000000000000000000000000073ffffffffffffffffffffffffffffffffffffffff166370a08231306040518263ffffffff1660e01b81526004016105f59190611aeb565b602060405180830381865afa158015610612573d6000803e3d6000fd5b505050506040513d601f19601f820116820180604052508101906106369190611ce0565b9050600084836106469190611d3c565b9050600084836106569190611d3c565b9050600061066261049f565b90506000810361068757610680828461067b9190611d70565b611198565b97506106c0565b6106bd8782856106979190611d70565b6106a19190611de1565b8783856106ae9190611d70565b6106b89190611de1565b611212565b97505b60008811610703576040517f08c379a00000000000000000000000000000000000000000000000000000000081526004016106fa90611e5e565b60405180910390fd5b61070d898961122b565b61071785856112ad565b3373ffffffffffffffffffffffffffffffffffffffff167f4c209b5fc8ad50758f13e2e1088ba56a560dff690a1c6fef26394f4c03821c4f848460405161075f9291906119ae565b60405180910390a250505050505050919050565b60055483108015610785575060065482105b6107c4576040517f08c379a00000000000000000000000000000000000000000000000000000000081526004016107bb90611eca565b60405180910390fd5b60008311156107f9576107f87f000000000000000000000000000000000000000000000000000000000000000082856112f8565b5b600082111561082e5761082d7f000000000000000000000000000000000000000000000000000000000000000082846112f8565b5b60007f000000000000000000000000000000000000000000000000000000000000000073ffffffffffffffffffffffffffffffffffffffff166370a08231306040518263ffffffff1660e01b81526004016108899190611aeb565b602060405180830381865afa1580156108a6573d6000803e3d6000fd5b505050506040513d601f19601f820116820180604052508101906108ca9190611ce0565b905060007f000000000000000000000000000000000000000000000000000000000000000073ffffffffffffffffffffffffffffffffffffffff166370a08231306040518263ffffffff1660e01b81526004016109279190611aeb565b602060405180830381865afa158015610944573d6000803e3d6000fd5b505050506040513d601f19601f820116820180604052508101906109689190611ce0565b905060008560055461097a9190611d3c565b83116109875760006109a1565b856005546109959190611d3c565b836109a09190611d3c565b5b90506000856006546109b39190611d3c565b83116109c05760006109da565b856006546109ce9190611d3c565b836109d99190611d3c565b5b905060008211806109eb5750600081115b610a2a576040517f08c379a0000000000000000000000000000000000000000000000000000000008152600401610a2190611f36565b60405180910390fd5b6000600383610a399190611d70565b6103e886610a479190611d70565b610a519190611d3c565b90506000600383610a629190611d70565b6103e886610a709190611d70565b610a7a9190611d3c565b9050620f4240600654600554610a909190611d70565b610a9a9190611d70565b8183610aa69190611d70565b1015610ae7576040517f08c379a0000000000000000000000000000000000000000000000000000000008152600401610ade90611fa2565b60405180910390fd5b610af186866112ad565b8673ffffffffffffffffffffffffffffffffffffffff163373ffffffffffffffffffffffffffffffffffffffff167fd78ad95fa46c994b6551d0da85fc275fe613ce37657fb8d5e3d130840159d82286868d8d604051610b549493929190611fc2565b60405180910390a3505050505050505050565b60008060008373ffffffffffffffffffffffffffffffffffffffff1673ffffffffffffffffffffffffffffffffffffffff168152602001908152602001600020549050919050565b600080600080600554600654915091506000610bca30610b67565b90506000610bd661049f565b9050808483610be59190611d70565b610bef9190611de1565b9550808383610bfe9190611d70565b610c089190611de1565b9450600086118015610c1a5750600085115b610c59576040517f08c379a0000000000000000000000000000000000000000000000000000000008152600401610c5090612053565b60405180910390fd5b610c633083611465565b610c8e7f000000000000000000000000000000000000000000000000000000000000000088886112f8565b610cb97f000000000000000000000000000000000000000000000000000000000000000088876112f8565b60007f000000000000000000000000000000000000000000000000000000000000000073ffffffffffffffffffffffffffffffffffffffff166370a08231306040518263ffffffff1660e01b8152600401610d149190611aeb565b602060405180830381865afa158015610d31573d6000803e3d6000fd5b505050506040513d601f19601f82011682018060405250810190610d559190611ce0565b905060007f000000000000000000000000000000000000000000000000000000000000000073ffffffffffffffffffffffffffffffffffffffff166370a08231306040518263ffffffff1660e01b8152600401610db29190611aeb565b602060405180830381865afa158015610dcf573d6000803e3d6000fd5b505050506040513d601f19601f82011682018060405250810190610df39190611ce0565b9050610dff82826112ad565b8873ffffffffffffffffffffffffffffffffffffffff163373ffffffffffffffffffffffffffffffffffffffff167fdccd412f0b1252819cb1fd330b93224ca42612892bb3f4f789976e6d819364968a8a604051610e5e9291906119ae565b60405180910390a3505050505050915091565b606060048054610e8090611c9a565b80601f0160208091040260200160405190810160405280929190818152602001828054610eac90611c9a565b8015610ef95780601f10610ece57610100808354040283529160200191610ef9565b820191906000526020600020905b815481529060010190602001808311610edc57829003601f168201915b5050505050905090565b600080610f0e610ff5565b9050610f1b8185856110a4565b600191505092915050565b7f000000000000000000000000000000000000000000000000000000000000000081565b7f000000000000000000000000000000000000000000000000000000000000000081565b6000600160008473ffffffffffffffffffffffffffffffffffffffff1673ffffffffffffffffffffffffffffffffffffffff16815260200190815260200160002060008373ffffffffffffffffffffffffffffffffffffffff1673ffffffffffffffffffffffffffffffffffffffff16815260200190815260200160002054905092915050565b600033905090565b61100a83838360016114e7565b505050565b600061101b8484610f6e565b90507fffffffffffffffffffffffffffffffffffffffffffffffffffffffffffffffff81101561109e578181101561108e578281836040517ffb8f41b200000000000000000000000000000000000000000000000000000000815260040161108593929190612073565b60405180910390fd5b61109d848484840360006114e7565b5b50505050565b600073ffffffffffffffffffffffffffffffffffffffff168373ffffffffffffffffffffffffffffffffffffffff16036111165760006040517f96c6fd1e00000000000000000000000000000000000000000000000000000000815260040161110d9190611aeb565b60405180910390fd5b600073ffffffffffffffffffffffffffffffffffffffff168273ffffffffffffffffffffffffffffffffffffffff16036111885760006040517fec442f0500000000000000000000000000000000000000000000000000000000815260040161117f9190611aeb565b60405180910390fd5b6111938383836116be565b505050565b600060038211156111ff57819050600060016002846111b79190611de1565b6111c191906120aa565b90505b818110156111f95780915060028182856111de9190611de1565b6111e891906120aa565b6111f29190611de1565b90506111c4565b5061120d565b6000821461120c57600190505b5b919050565b60008183106112215781611223565b825b905092915050565b600073ffffffffffffffffffffffffffffffffffffffff168273ffffffffffffffffffffffffffffffffffffffff160361129d5760006040517fec442f050000000000000000000000000000000000000000000000000000000081526004016112949190611aeb565b60405180910390fd5b6112a9600083836116be565b5050565b81600581905550806006819055507fcf2aa50876cdfbb541206f89af0ee78d44a2abf8d328e37fa4917f982149848a82826040516112ec9291906119ae565b60405180910390a15050565b6000808473ffffffffffffffffffffffffffffffffffffffff1684846040516024016113259291906120de565b6040516020818303038152906040527fa9059cbb000000000000000000000000000000000000000000000000000000007bffffffffffffffffffffffffffffffffffffffffffffffffffffffff19166020820180517bffffffffffffffffffffffffffffffffffffffffffffffffffffffff83818316178352505050506040516113af919061214e565b6000604051808303816000865af19150503d80600081146113ec576040519150601f19603f3d011682016040523d82523d6000602084013e6113f1565b606091505b509150915081801561141f575060008151148061141e57508080602001905181019061141d9190612191565b5b5b61145e576040517f08c379a00000000000000000000000000000000000000000000000000000000081526004016114559061220a565b60405180910390fd5b5050505050565b600073ffffffffffffffffffffffffffffffffffffffff168273ffffffffffffffffffffffffffffffffffffffff16036114d75760006040517f96c6fd1e0000000000000000000000000000000000000000000000000000000081526004016114ce9190611aeb565b60405180910390fd5b6114e3826000836116be565b5050565b600073ffffffffffffffffffffffffffffffffffffffff168473ffffffffffffffffffffffffffffffffffffffff16036115595760006040517fe602df050000000000000000000000000000000000000000000000000000000081526004016115509190611aeb565b60405180910390fd5b600073ffffffffffffffffffffffffffffffffffffffff168373ffffffffffffffffffffffffffffffffffffffff16036115cb5760006040517f94280d620000000000000000000000000000000000000000000000000000000081526004016115c29190611aeb565b60405180910390fd5b81600160008673ffffffffffffffffffffffffffffffffffffffff1673ffffffffffffffffffffffffffffffffffffffff16815260200190815260200160002060008573ffffffffffffffffffffffffffffffffffffffff1673ffffffffffffffffffffffffffffffffffffffff1681526020019081526020016000208190555080156116b8578273ffffffffffffffffffffffffffffffffffffffff168473ffffffffffffffffffffffffffffffffffffffff167f8c5be1e5ebec7d5bd14f71427d1e84f3dd0314c0f7b2291e5b200ac8c7c3b925846040516116af9190611b06565b60405180910390a35b50505050565b600073ffffffffffffffffffffffffffffffffffffffff168373ffffffffffffffffffffffffffffffffffffffff160361171057806002600082825461170491906120aa565b925050819055506117e3565b60008060008573ffffffffffffffffffffffffffffffffffffffff1673ffffffffffffffffffffffffffffffffffffffff1681526020019081526020016000205490508181101561179c578381836040517fe450d38c00000000000000000000000000000000000000000000000000000000815260040161179393929190612073565b60405180910390fd5b8181036000808673ffffffffffffffffffffffffffffffffffffffff1673ffffffffffffffffffffffffffffffffffffffff16815260200190815260200160002081905550505b600073ffffffffffffffffffffffffffffffffffffffff168273ffffffffffffffffffffffffffffffffffffffff160361182c5780600260008282540392505081905550611879565b806000808473ffffffffffffffffffffffffffffffffffffffff1673ffffffffffffffffffffffffffffffffffffffff168152602001908152602001600020600082825401925050819055505b8173ffffffffffffffffffffffffffffffffffffffff168373ffffffffffffffffffffffffffffffffffffffff167fddf252ad1be2c89b69c2b068fc378daa952ba7f163c4a11628f55a4df523b3ef836040516118d69190611b06565b60405180910390a3505050565b600081519050919050565b600082825260208201905092915050565b60005b8381101561191d578082015181840152602081019050611902565b60008484015250505050565b6000601f19601f8301169050919050565b6000611945826118e3565b61194f81856118ee565b935061195f8185602086016118ff565b61196881611929565b840191505092915050565b6000602082019050818103600083015261198d818461193a565b905092915050565b6000819050919050565b6119a881611995565b82525050565b60006040820190506119c3600083018561199f565b6119d0602083018461199f565b9392505050565b600080fd5b600073ffffffffffffffffffffffffffffffffffffffff82169050919050565b6000611a07826119dc565b9050919050565b611a17816119fc565b8114611a2257600080fd5b50565b600081359050611a3481611a0e565b92915050565b611a4381611995565b8114611a4e57600080fd5b50565b600081359050611a6081611a3a565b92915050565b60008060408385031215611a7d57611a7c6119d7565b5b6000611a8b85828601611a25565b9250506020611a9c85828601611a51565b9150509250929050565b60008115159050919050565b611abb81611aa6565b82525050565b6000602082019050611ad66000830184611ab2565b92915050565b611ae5816119fc565b82525050565b6000602082019050611b006000830184611adc565b92915050565b6000602082019050611b1b600083018461199f565b92915050565b600080600060608486031215611b3a57611b396119d7565b5b6000611b4886828701611a25565b9350506020611b5986828701611a25565b9250506040611b6a86828701611a51565b9150509250925092565b600060ff82169050919050565b611b8a81611b74565b82525050565b6000602082019050611ba56000830184611b81565b92915050565b600060208284031215611bc157611bc06119d7565b5b6000611bcf84828501611a25565b91505092915050565b600080600060608486031215611bf157611bf06119d7565b5b6000611bff86828701611a51565b9350506020611c1086828701611a51565b9250506040611c2186828701611a25565b9150509250925092565b60008060408385031215611c4257611c416119d7565b5b6000611c5085828601611a25565b9250506020611c6185828601611a25565b9150509250929050565b7f4e487b7100000000000000000000000000000000000000000000000000000000600052602260045260246000fd5b60006002820490506001821680611cb257607f821691505b602082108103611cc557611cc4611c6b565b5b50919050565b600081519050611cda81611a3a565b92915050565b600060208284031215611cf657611cf56119d7565b5b6000611d0484828501611ccb565b91505092915050565b7f4e487b7100000000000000000000000000000000000000000000000000000000600052601160045260246000fd5b6000611d4782611995565b9150611d5283611995565b9250828203905081811115611d6a57611d69611d0d565b5b92915050565b6000611d7b82611995565b9150611d8683611995565b9250828202611d9481611995565b91508282048414831517611dab57611daa611d0d565b5b5092915050565b7f4e487b7100000000000000000000000000000000000000000000000000000000600052601260045260246000fd5b6000611dec82611995565b9150611df783611995565b925082611e0757611e06611db2565b5b828204905092915050565b7f494e53554646494349454e545f4c49515549444954595f4d494e544544000000600082015250565b6000611e48601d836118ee565b9150611e5382611e12565b602082019050919050565b60006020820190508181036000830152611e7781611e3b565b9050919050565b7f494e53554646494349454e545f4c495155494449545900000000000000000000600082015250565b6000611eb46016836118ee565b9150611ebf82611e7e565b602082019050919050565b60006020820190508181036000830152611ee381611ea7565b9050919050565b7f494e53554646494349454e545f494e5055545f414d4f554e5400000000000000600082015250565b6000611f206019836118ee565b9150611f2b82611eea565b602082019050919050565b60006020820190508181036000830152611f4f81611f13565b9050919050565b7f4b5f434f4e5354414e545f494e56414c49440000000000000000000000000000600082015250565b6000611f8c6012836118ee565b9150611f9782611f56565b602082019050919050565b60006020820190508181036000830152611fbb81611f7f565b9050919050565b6000608082019050611fd7600083018761199f565b611fe4602083018661199f565b611ff1604083018561199f565b611ffe606083018461199f565b95945050505050565b7f494e53554646494349454e545f4c49515549444954595f4255524e4544000000600082015250565b600061203d601d836118ee565b915061204882612007565b602082019050919050565b6000602082019050818103600083015261206c81612030565b9050919050565b60006060820190506120886000830186611adc565b612095602083018561199f565b6120a2604083018461199f565b949350505050565b60006120b582611995565b91506120c083611995565b92508282019050808211156120d8576120d7611d0d565b5b92915050565b60006040820190506120f36000830185611adc565b612100602083018461199f565b9392505050565b600081519050919050565b600081905092915050565b600061212882612107565b6121328185612112565b93506121428185602086016118ff565b80840191505092915050565b600061215a828461211d565b915081905092915050565b61216e81611aa6565b811461217957600080fd5b50565b60008151905061218b81612165565b92915050565b6000602082840312156121a7576121a66119d7565b5b60006121b58482850161217c565b91505092915050565b7f5452414e534645525f4641494c45440000000000000000000000000000000000600082015250565b60006121f4600f836118ee565b91506121ff826121be565b602082019050919050565b60006020820190508181036000830152612223816121e7565b905091905056fea26469706673582212202ed2e78747306bdd8bfe9b2627fdbb05d0f8107782021a1afa29b874bfd3cde664736f6c634300081c0033",
  "linkReferences": {},
  "deployedLinkReferences": {}
}