{
  "_format": "hh-sol-artifact-1",
  "contractName": "AMMRouter",
  "sourceName": "contracts/AMMrouter.sol",
  "abi": [
    {
      "inputs": [
        {
          "internalType": "address",
          "name": "_factory",
          "type": "address"
        }
      ],
      "stateMutability": "nonpayable",
      "type": "constructor"
    },
    {
      "inputs": [
        {
          "internalType": "address",
          "name": "tokenA",
          "type": "address"
        },
        {
          "internalType": "address",
          "name": "tokenB",
          "type": "address"
        },
        {
          "internalType": "uint256",
          "name": "amountA",
          "type": "uint256"
        },
        {
          "internalType": "uint256",
          "name": "amountB",
          "type": "uint256"
        },
        {
          "internalType": "uint256",
          "name": "deadline",
          "type": "uint256"
        }
      ],
      "name": "addLiquidity",
      "outputs": [],
      "stateMutability": "nonpayable",
      "type": "function"
    },
    {
      "inputs": [],
      "name": "factory",
      "outputs": [
        {
          "internalType": "address",
          "name": "",
          "type": "address"
        }
      ],
      "stateMutability": "view",
      "type": "function"
    },
    {
      "inputs": [
        {
          "internalType": "address",
          "name": "tokenA",
          "type": "address"
        },
        {
          "internalType": "address",
          "name": "tokenB",
          "type": "address"
        },
        {
          "internalType": "uint256",
          "name": "liquidity",
          "type": "uint256"
        },
        {
          "internalType": "uint256",
          "name": "deadline",
          "type": "uint256"
        }
      ],
      "name": "removeLiquidity",
      "outputs": [],
      "stateMutability": "nonpayable",
      "type": "function"
    },
    {
      "inputs": [
        {
          "internalType": "uint256",
          "name": "amountIn",
          "type": "uint256"
        },
        {
          "internalType": "uint256",
          "name": "amountOutMin",
          "type": "uint256"
        },
        {
          "internalType": "address[]",
          "name": "path",
          "type": "address[]"
        },
        {
          "internalType": "address",
          "name": "to",
          "type": "address"
        },
        {
          "internalType": "uint256",
          "name": "deadline",
          "type": "uint256"
        }
      ],
      "name": "swapExactTokensForTokens",
      "outputs": [
        {
          "internalType": "uint256[]",
          "name": "amounts",
          "type": "uint256[]"
        }
      ],
      "stateMutability": "nonpayable",
      "type": "function"
    }
  ],
  "bytecode": "0x60a060405234801561001057600080fd5b506040516119da3803806119da833981810160405281019061003291906100cf565b8073ffffffffffffffffffffffffffffffffffffffff1660808173ffffffffffffffffffffffffffffffffffffffff1681525050506100fc565b600080fd5b600073ffffffffffffffffffffffffffffffffffffffff82169050919050565b600061009c82610071565b9050919050565b6100ac81610091565b81146100b757600080fd5b50565b6000815190506100c9816100a3565b92915050565b6000602082840312156100e5576100e461006c565b5b60006100f3848285016100ba565b91505092915050565b6080516118a061013a600039600081816101f0015281816104b5015281816107c101528181610a1801528181610aea0152610d1201526118a06000f3fe608060405234801561001057600080fd5b506004361061004c5760003560e01c806338ed1739146100515780633ee7f9d31461008157806391c98a2a1461009d578063c45a0155146100b9575b600080fd5b61006b60048036038101906100669190611024565b6100d7565b604051610078919061117c565b60405180910390f35b61009b6004803603810190610096919061119e565b61077a565b005b6100b760048036038101906100b29190611205565b6109d1565b005b6100c1610d10565b6040516100ce919061128f565b60405180910390f35b60606002858590501015610120576040517f08c379a000000000000000000000000000000000000000000000000000000000815260040161011790611307565b60405180910390fd5b81421115610163576040517f08c379a000000000000000000000000000000000000000000000000000000000815260040161015a90611373565b60405180910390fd5b8484905067ffffffffffffffff8111156101805761017f611393565b5b6040519080825280602002602001820160405280156101ae5781602001602082028036833780820191505090505b50905086816000815181106101c6576101c56113c2565b5b60200260200101818152505060005b6001868690506101e59190611420565b8110156107055760007f000000000000000000000000000000000000000000000000000000000000000073ffffffffffffffffffffffffffffffffffffffff1663e6a4390588888581811061023d5761023c6113c2565b5b90506020020160208101906102529190611454565b89896001876102619190611481565b818110610271576102706113c2565b5b90506020020160208101906102869190611454565b6040518363ffffffff1660e01b81526004016102a39291906114b5565b602060405180830381865afa1580156102c0573d6000803e3d6000fd5b505050506040513d601f19601f820116820180604052508101906102e491906114f3565b905060008061031a838a8a87818110610300576102ff6113c2565b5b90506020020160208101906103159190611454565b610d34565b91509150610343858581518110610334576103336113c2565b5b60200260200101518383610e6e565b856001866103519190611481565b81518110610362576103616113c2565b5b6020026020010181815250506000808473ffffffffffffffffffffffffffffffffffffffff1663d21220a76040518163ffffffff1660e01b8152600401602060405180830381865afa1580156103bc573d6000803e3d6000fd5b505050506040513d601f19601f820116820180604052508101906103e091906114f3565b73ffffffffffffffffffffffffffffffffffffffff168b8b88818110610409576104086113c2565b5b905060200201602081019061041e9190611454565b73ffffffffffffffffffffffffffffffffffffffff161061046757866001876104479190611481565b81518110610458576104576113c2565b5b60200260200101516000610491565b6000876001886104779190611481565b81518110610488576104876113c2565b5b60200260200101515b91509150600060028c8c90506104a79190611420565b87106104b357896105b6565b7f000000000000000000000000000000000000000000000000000000000000000073ffffffffffffffffffffffffffffffffffffffff1663e6a439058d8d60018b6104fe9190611481565b81811061050e5761050d6113c2565b5b90506020020160208101906105239190611454565b8e8e60028c6105329190611481565b818110610542576105416113c2565b5b90506020020160208101906105579190611454565b6040518363ffffffff1660e01b81526004016105749291906114b5565b602060405180830381865afa158015610591573d6000803e3d6000fd5b505050506040513d601f19601f820116820180604052508101906105b591906114f3565b5b905060008703610683578b8b888181106105d3576105d26113c2565b5b90506020020160208101906105e89190611454565b73ffffffffffffffffffffffffffffffffffffffff166323b872dd33888b8b81518110610618576106176113c2565b5b60200260200101516040518463ffffffff1660e01b815260040161063e9392919061152f565b6020604051808303816000875af115801561065d573d6000803e3d6000fd5b505050506040513d601f19601f82011682018060405250810190610681919061159e565b505b8573ffffffffffffffffffffffffffffffffffffffff16636d9a640a8484846040518463ffffffff1660e01b81526004016106c0939291906115cb565b600060405180830381600087803b1580156106da57600080fd5b505af11580156106ee573d6000803e3d6000fd5b5050505050505050505080806001019150506101d5565b508581600183516107169190611420565b81518110610727576107266113c2565b5b60200260200101511015610770576040517f08c379a00000000000000000000000000000000000000000000000000000000081526004016107679061164e565b60405180910390fd5b9695505050505050565b804211156107bd576040517f08c379a00000000000000000000000000000000000000000000000000000000081526004016107b490611373565b60405180910390fd5b60007f000000000000000000000000000000000000000000000000000000000000000073ffffffffffffffffffffffffffffffffffffffff1663e6a4390586866040518363ffffffff1660e01b815260040161081a9291906114b5565b602060405180830381865afa158015610837573d6000803e3d6000fd5b505050506040513d601f19601f8201168201806040525081019061085b91906114f3565b9050600073ffffffffffffffffffffffffffffffffffffffff168173ffffffffffffffffffffffffffffffffffffffff16036108cc576040517f08c379a00000000000000000000000000000000000000000000000000000000081526004016108c3906116ba565b60405180910390fd5b8073ffffffffffffffffffffffffffffffffffffffff166323b872dd3383866040518463ffffffff1660e01b81526004016109099392919061152f565b6020604051808303816000875af1158015610928573d6000803e3d6000fd5b505050506040513d601f19601f8201168201806040525081019061094c919061159e565b508073ffffffffffffffffffffffffffffffffffffffff166389afcb44336040518263ffffffff1660e01b8152600401610986919061128f565b60408051808303816000875af11580156109a4573d6000803e3d6000fd5b505050506040513d601f19601f820116820180604052508101906109c891906116ef565b50505050505050565b80421115610a14576040517f08c379a0000000000000000000000000000000000000000000000000000000008152600401610a0b90611373565b60405180910390fd5b60007f000000000000000000000000000000000000000000000000000000000000000073ffffffffffffffffffffffffffffffffffffffff1663e6a4390587876040518363ffffffff1660e01b8152600401610a719291906114b5565b602060405180830381865afa158015610a8e573d6000803e3d6000fd5b505050506040513d601f19601f82011682018060405250810190610ab291906114f3565b9050600073ffffffffffffffffffffffffffffffffffffffff168173ffffffffffffffffffffffffffffffffffffffff1603610b89577f000000000000000000000000000000000000000000000000000000000000000073ffffffffffffffffffffffffffffffffffffffff1663c9c6539687876040518363ffffffff1660e01b8152600401610b439291906114b5565b6020604051808303816000875af1158015610b62573d6000803e3d6000fd5b505050506040513d601f19601f82011682018060405250810190610b8691906114f3565b90505b8573ffffffffffffffffffffffffffffffffffffffff166323b872dd3383876040518463ffffffff1660e01b8152600401610bc69392919061152f565b6020604051808303816000875af1158015610be5573d6000803e3d6000fd5b505050506040513d601f19601f82011682018060405250810190610c09919061159e565b508473ffffffffffffffffffffffffffffffffffffffff166323b872dd3383866040518463ffffffff1660e01b8152600401610c479392919061152f565b6020604051808303816000875af1158015610c66573d6000803e3d6000fd5b505050506040513d601f19601f82011682018060405250810190610c8a919061159e565b508073ffffffffffffffffffffffffffffffffffffffff16636a627842336040518263ffffffff1660e01b8152600401610cc4919061128f565b6020604051808303816000875af1158015610ce3573d6000803e3d6000fd5b505050506040513d601f19601f82011682018060405250810190610d07919061172f565b50505050505050565b7f000000000000000000000000000000000000000000000000000000000000000081565b60008060008473ffffffffffffffffffffffffffffffffffffffff16630dfe16816040518163ffffffff1660e01b8152600401602060405180830381865afa158015610d84573d6000803e3d6000fd5b505050506040513d601f19601f82011682018060405250810190610da891906114f3565b90506000808673ffffffffffffffffffffffffffffffffffffffff16630902f1ac6040518163ffffffff1660e01b81526004016040805180830381865afa158015610df7573d6000803e3d6000fd5b505050506040513d601f19601f82011682018060405250810190610e1b91906116ef565b915091508273ffffffffffffffffffffffffffffffffffffffff168673ffffffffffffffffffffffffffffffffffffffff1614610e59578082610e5c565b81815b80955081965050505050509250929050565b60008084118015610e7f5750600083115b8015610e8b5750600082115b610eca576040517f08c379a0000000000000000000000000000000000000000000000000000000008152600401610ec1906117a8565b60405180910390fd5b60006103e585610eda91906117c8565b905060008382610eea91906117c8565b90506000826103e887610efd91906117c8565b610f079190611481565b90508082610f159190611839565b93505050509392505050565b600080fd5b600080fd5b6000819050919050565b610f3e81610f2b565b8114610f4957600080fd5b50565b600081359050610f5b81610f35565b92915050565b600080fd5b600080fd5b600080fd5b60008083601f840112610f8657610f85610f61565b5b8235905067ffffffffffffffff811115610fa357610fa2610f66565b5b602083019150836020820283011115610fbf57610fbe610f6b565b5b9250929050565b600073ffffffffffffffffffffffffffffffffffffffff82169050919050565b6000610ff182610fc6565b9050919050565b61100181610fe6565b811461100c57600080fd5b50565b60008135905061101e81610ff8565b92915050565b60008060008060008060a0878903121561104157611040610f21565b5b600061104f89828a01610f4c565b965050602061106089828a01610f4c565b955050604087013567ffffffffffffffff81111561108157611080610f26565b5b61108d89828a01610f70565b945094505060606110a089828a0161100f565b92505060806110b189828a01610f4c565b9150509295509295509295565b600081519050919050565b600082825260208201905092915050565b6000819050602082019050919050565b6110f381610f2b565b82525050565b600061110583836110ea565b60208301905092915050565b6000602082019050919050565b6000611129826110be565b61113381856110c9565b935061113e836110da565b8060005b8381101561116f57815161115688826110f9565b975061116183611111565b925050600181019050611142565b5085935050505092915050565b60006020820190508181036000830152611196818461111e565b905092915050565b600080600080608085870312156111b8576111b7610f21565b5b60006111c68782880161100f565b94505060206111d78782880161100f565b93505060406111e887828801610f4c565b92505060606111f987828801610f4c565b91505092959194509250565b600080600080600060a0868803121561122157611220610f21565b5b600061122f8882890161100f565b95505060206112408882890161100f565b945050604061125188828901610f4c565b935050606061126288828901610f4c565b925050608061127388828901610f4c565b9150509295509295909350565b61128981610fe6565b82525050565b60006020820190506112a46000830184611280565b92915050565b600082825260208201905092915050565b7f494e56414c49445f504154480000000000000000000000000000000000000000600082015250565b60006112f1600c836112aa565b91506112fc826112bb565b602082019050919050565b60006020820190508181036000830152611320816112e4565b9050919050565b7f4558504952454400000000000000000000000000000000000000000000000000600082015250565b600061135d6007836112aa565b915061136882611327565b602082019050919050565b6000602082019050818103600083015261138c81611350565b9050919050565b7f4e487b7100000000000000000000000000000000000000000000000000000000600052604160045260246000fd5b7f4e487b7100000000000000000000000000000000000000000000000000000000600052603260045260246000fd5b7f4e487b7100000000000000000000000000000000000000000000000000000000600052601160045260246000fd5b600061142b82610f2b565b915061143683610f2b565b925082820390508181111561144e5761144d6113f1565b5b92915050565b60006020828403121561146a57611469610f21565b5b60006114788482850161100f565b91505092915050565b600061148c82610f2b565b915061149783610f2b565b92508282019050808211156114af576114ae6113f1565b5b92915050565b60006040820190506114ca6000830185611280565b6114d76020830184611280565b9392505050565b6000815190506114ed81610ff8565b92915050565b60006020828403121561150957611508610f21565b5b6000611517848285016114de565b91505092915050565b61152981610f2b565b82525050565b60006060820190506115446000830186611280565b6115516020830185611280565b61155e6040830184611520565b949350505050565b60008115159050919050565b61157b81611566565b811461158657600080fd5b50565b60008151905061159881611572565b92915050565b6000602082840312156115b4576115b3610f21565b5b60006115c284828501611589565b91505092915050565b60006060820190506115e06000830186611520565b6115ed6020830185611520565b6115fa6040830184611280565b949350505050565b7f494e53554646494349454e545f4f55545055545f414d4f554e54000000000000600082015250565b6000611638601a836112aa565b915061164382611602565b602082019050919050565b600060208201905081810360008301526116678161162b565b9050919050565b7f504149525f444f45535f4e4f545f455849535400000000000000000000000000600082015250565b60006116a46013836112aa565b91506116af8261166e565b602082019050919050565b600060208201905081810360008301526116d381611697565b9050919050565b6000815190506116e981610f35565b92915050565b6000806040838503121561170657611705610f21565b5b6000611714858286016116da565b9250506020611725858286016116da565b9150509250929050565b60006020828403121561174557611744610f21565b5b6000611753848285016116da565b91505092915050565b7f494e53554646494349454e545f4c495155494449545900000000000000000000600082015250565b60006117926016836112aa565b915061179d8261175c565b602082019050919050565b600060208201905081810360008301526117c181611785565b9050919050565b60006117d382610f2b565b91506117de83610f2b565b92508282026117ec81610f2b565b91508282048414831517611803576118026113f1565b5b5092915050565b7f4e487b7100000000000000000000000000000000000000000000000000000000600052601260045260246000fd5b600061184482610f2b565b915061184f83610f2b565b92508261185f5761185e61180a565b5b82820490509291505056fea2646970667358221220ec7da0224a492db226093d2b110d71067cc1657f05d5b1bf6a261f5c1048fa0064736f6c634300081c0033",
  "linkReferences": {},
  "deployedLinkReferences": {}
}