{
  "_format": "hh-sol-artifact-1",
  "contractName": "AMMRouter",
  "sourceName": "contracts/AMMrouter.sol",
  "abi": [
    {
      "inputs": [
        {
          "internalType": "address",
          "name": "_factory",
          "type": "address"
        }
      ],
      "stateMutability": "nonpayable",
      "type": "constructor"
    },
    {
      "inputs": [
        {
          "internalType": "address",
          "name": "tokenA",
          "type": "address"
        },
        {
          "internalType": "address",
          "name": "tokenB",
          "type": "address"
        },
        {
          "internalType": "uint256",
          "name": "amountADesired",
          "type": "uint256"
        },
        {
          "internalType": "uint256",
          "name": "amountBDesired",
          "type": "uint256"
        },
        {
          "internalType": "address",
          "name": "to",
          "type": "address"
        },
        {
          "internalType": "uint256",
          "name": "deadline",
          "type": "uint256"
        }
      ],
      "name": "addLiquidity",
      "outputs": [
        {
          "internalType": "uint256",
          "name": "amountA",
          "type": "uint256"
        },
        {
          "internalType": "uint256",
          "name": "amountB",
          "type": "uint256"
        },
        {
          "internalType": "uint256",
          "name": "liquidity",
          "type": "uint256"
        }
      ],
      "stateMutability": "nonpayable",
      "type": "function"
    },
    {
      "inputs": [],
      "name": "factory",
      "outputs": [
        {
          "internalType": "address",
          "name": "",
          "type": "address"
        }
      ],
      "stateMutability": "view",
      "type": "function"
    },
    {
      "inputs": [
        {
          "internalType": "uint256",
          "name": "amountIn",
          "type": "uint256"
        },
        {
          "internalType": "address[]",
          "name": "path",
          "type": "address[]"
        }
      ],
      "name": "getAmountsOut",
      "outputs": [
        {
          "internalType": "uint256[]",
          "name": "amounts",
          "type": "uint256[]"
        }
      ],
      "stateMutability": "view",
      "type": "function"
    },
    {
      "inputs": [
        {
          "internalType": "address",
          "name": "tokenA",
          "type": "address"
        },
        {
          "internalType": "address",
          "name": "tokenB",
          "type": "address"
        },
        {
          "internalType": "uint256",
          "name": "liquidity",
          "type": "uint256"
        },
        {
          "internalType": "uint256",
          "name": "deadline",
          "type": "uint256"
        }
      ],
      "name": "removeLiquidity",
      "outputs": [],
      "stateMutability": "nonpayable",
      "type": "function"
    },
    {
      "inputs": [
        {
          "internalType": "uint256",
          "name": "amountIn",
          "type": "uint256"
        },
        {
          "internalType": "uint256",
          "name": "amountOutMin",
          "type": "uint256"
        },
        {
          "internalType": "address[]",
          "name": "path",
          "type": "address[]"
        },
        {
          "internalType": "address",
          "name": "to",
          "type": "address"
        },
        {
          "internalType": "uint256",
          "name": "deadline",
          "type": "uint256"
        }
      ],
      "name": "swapExactTokensForTokens",
      "outputs": [
        {
          "internalType": "uint256[]",
          "name": "amounts",
          "type": "uint256[]"
        }
      ],
      "stateMutability": "nonpayable",
      "type": "function"
    },
    {
      "inputs": [
        {
          "internalType": "uint256",
          "name": "amountIn",
          "type": "uint256"
        },
        {
          "internalType": "uint256",
          "name": "amountOutMin",
          "type": "uint256"
        },
        {
          "internalType": "address[]",
          "name": "path",
          "type": "address[]"
        },
        {
          "internalType": "address",
          "name": "to",
          "type": "address"
        },
        {
          "internalType": "uint256",
          "name": "deadline",
          "type": "uint256"
        }
      ],
      "name": "swapExactTokensForTokensSupportingFeeOnTransferTokens",
      "outputs": [],
      "stateMutability": "nonpayable",
      "type": "function"
    }
  ],
  "bytecode": "0x60a03461009a57601f61152238819003918201601f19168301916001600160401b0383118484101761009f5780849260209460405283398101031261009a57516001600160a01b038116810361009a5760805260405161146c90816100b6823960805181818160d901528181610179015281816106160152818161089e01528181610aa001528181610bd801528181610c9c01526110520152f35b600080fd5b634e487b7160e01b600052604160045260246000fdfe6080604052600436101561001257600080fd5b60003560e01c806338ed1739146109e95780633ee7f9d3146108295780635c11d795146105a25780636ed36f8814610108578063c45a0155146100c35763d06ca61f1461005e57600080fd5b346100be5760403660031901126100be5760243567ffffffffffffffff81116100be57366023820112156100be576100ae6100a66100ba923690602481600401359101610f43565b600435610ffd565b60405191829182610ea4565b0390f35b600080fd5b346100be5760003660031901126100be576040517f00000000000000000000000000000000000000000000000000000000000000006001600160a01b03168152602090f35b346100be5760c03660031901126100be57610121610e0b565b610129610e21565b906001600160a01b03608435818116908190036100be5761014e60a4354211156111bf565b60405163e6a4390560e01b81526001600160a01b0384811660048301528516602482015292602092907f000000000000000000000000000000000000000000000000000000000000000082168486604481845afa95861561038457600096610583575b5082861615610509575b5081166040516370a0823160e01b8082528387169384600484015260249887848b81885afa938415610384576000946104da575b5016966040519382855285600486015287858b818c5afa948515610384576000956104ab575b506040516323b872dd60e01b8082523360048301526001600160a01b03841660248301526044803590830152909289846064816000875af191821561038457610291948b9361048e575b506040519081523360048201526001600160a01b03909116602482015260648035604483015290938491829190820190565b038160008d5af1908115610384578a928992610461575b50604051928380928682528960048301525afa918215610384578791600093610430575b5089604051809a819382528860048301525afa968715610384576000976103f9575b5061030392916102fd91610fd1565b95610fd1565b91841515806103f0575b156103905790600095849260405197889384926335313c2160e11b845260048401525af191821561038457600092610354575b606094506040519384528301526040820152f35b80925084813d831161037d575b61036b8183610f09565b810103126100be576060935191610340565b503d610361565b6040513d6000823e3d90fd5b60405162461bcd60e51b8152600481018590526033818801527f414d4d526f757465723a20494e53554646494349454e545f414d4f554e54535f60448201527252454345495645445f41465445525f4645455360681b6064820152608490fd5b5082151561030d565b9096508581819493943d8311610429575b6104148183610f09565b810103126100be5751959091906103036102ee565b503d61040a565b8281939294503d831161045a575b6104488183610f09565b810103126100be57869051918a6102cc565b503d61043e565b61048090833d8511610487575b6104788183610f09565b8101906111f5565b508b6102a8565b503d61046e565b6104a490843d8611610487576104788183610f09565b508d61025f565b9094508781813d83116104d3575b6104c38183610f09565b810103126100be5751938a610215565b503d6104b9565b9093508781813d8311610502575b6104f28183610f09565b810103126100be5751928a6101ef565b503d6104e8565b6040516364e329cb60e11b81526001600160a01b038381166004830152881660248201529195508490829060449082906000905af18015610384578291600091610556575b5094906101bb565b6105769150853d871161057c575b61056e8183610f09565b810190610fde565b8761054e565b503d610564565b61059b919650853d871161057c5761056e8183610f09565b94876101b1565b346100be576105c16105b336610e37565b9590939491954211156111bf565b8415610813576105d08261126f565b9460011015610813576020808301926105e88461126f565b60405163e6a4390560e01b81526001600160a01b0398891660048201529088166024820152969282886044817f000000000000000000000000000000000000000000000000000000000000000088165afa978815610384576000986107f2575b5082906106ae61066061065a8561126f565b8b611283565b9390928761066d8761126f565b6040516323b872dd60e01b81523360048201526001600160a01b038f1660248201526044810193909352919384929190911690829060009082906064820190565b03925af18015610384576107d5575b508484816106ca8661126f565b169a6024604051809481936370a0823160e01b8352169d8e60048301525afa90811561038457869560009261079c575b505061071a610728938361071561072e979561072395610fd1565b611347565b98891015611223565b61126f565b9361126f565b169116101561079457600091925b803b156100be576040516336cd320560e11b8152600481019390935260248301939093526001600160a01b03166044820152906000908290606490829084905af180156103845761078957005b61079290610edf565b005b60009261073c565b81959396508092503d83116107ce575b6107b68183610f09565b810103126100be57915184939061071a6107286106fa565b503d6107ac565b6107eb90853d8711610487576104788183610f09565b50896106bd565b8391985061080c90823d841161057c5761056e8183610f09565b9790610648565b634e487b7160e01b600052603260045260246000fd5b346100be5760803660031901126100be5761088c610845610e0b565b61084d610e21565b61085b6064354211156111bf565b60405163e6a4390560e01b81526001600160a01b039283166004820152911660248201529060209082906044820190565b6001600160a01b0391839185919003817f000000000000000000000000000000000000000000000000000000000000000085165afa928315610384576000936109ca575b508216801561098f576040516323b872dd60e01b81523360048201526001600160a01b03939093166024840152604480359084015281836064816000855af191821561038457600093604093610971575b5050602482518094819363226bf2d160e21b83523360048401525af180156103845761094957005b6107929060403d60401161096a575b6109628183610f09565b81019061120d565b503d610958565b8161098792903d10610487576104788183610f09565b508380610921565b60405162461bcd60e51b81526004810183905260136024820152721410525497d113d154d7d393d517d1561254d5606a1b6044820152606490fd5b6109e2919350823d841161057c5761056e8183610f09565b91836108d0565b346100be57610a126109fa36610e37565b94610a0c969196949294368686610f43565b90610ffd565b9384516000198101908111610d6b57610a4292610a32610a3a9288610fae565b511015611223565b4211156111bf565b811561081357610a518161126f565b918060011015610813576020610a9c93610a6c82850161126f565b60405163e6a4390560e01b81526001600160a01b0392831660048201529116602482015293849081906044820190565b03817f00000000000000000000000000000000000000000000000000000000000000006001600160a01b03165afa92831561038457610b3893602091600091610dee575b506001600160a01b03610af28561126f565b16610afc87610fa1565b516040516323b872dd60e01b81523360048201526001600160a01b03909316602484015260448301529094859190829060009082906064820190565b03925af192831561038457610b5493610dcf575b503691610f43565b60005b81516000198101908111610d6b57811015610dc1576001600160a01b03610b7e8284610fae565b511690600181018111610d6b576001600160a01b03610ba06001830185610fae565b5160405163e6a4390560e01b81526001600160a01b0385811660048301529290911680831660248301529391602090829060449082907f0000000000000000000000000000000000000000000000000000000000000000165afa918215610384578491600093610da0575b501015610d8957610c1f6001830186610fae565b5190600091935b855180600119810111610d6b5760011901841015610d8157600284018411610d6b57610c98906020906001600160a01b03610c64600288018a610fae565b5160405163e6a4390560e01b81526001600160a01b0393841660048201529116909116602482015291829081906044820190565b03817f00000000000000000000000000000000000000000000000000000000000000006001600160a01b03165afa90811561038457600091610d4c575b50905b6001600160a01b0316803b156100be576040516336cd320560e11b8152600481019390935260248301949094526001600160a01b03166044820152916000908390606490829084905af191821561038457610d3892610d3d575b50610fc2565b610b57565b610d4690610edf565b85610d32565b610d65915060203d60201161057c5761056e8183610f09565b88610cd5565b634e487b7160e01b600052601160045260246000fd5b508690610cd8565b610d966001830186610fae565b5190600093610c26565b610dba91935060203d60201161057c5761056e8183610f09565b9188610c0b565b604051806100ba8582610ea4565b610de79060203d602011610487576104788183610f09565b5085610b4c565b610e059150823d841161057c5761056e8183610f09565b87610ae0565b600435906001600160a01b03821682036100be57565b602435906001600160a01b03821682036100be57565b9060a06003198301126100be57600435916024359160443567ffffffffffffffff928382116100be57806023830112156100be5781600401359384116100be5760248460051b830101116100be5760240191906064356001600160a01b03811681036100be579060843590565b6020908160408183019282815285518094520193019160005b828110610ecb575050505090565b835185529381019392810192600101610ebd565b67ffffffffffffffff8111610ef357604052565b634e487b7160e01b600052604160045260246000fd5b90601f8019910116810190811067ffffffffffffffff821117610ef357604052565b67ffffffffffffffff8111610ef35760051b60200190565b9291610f4e82610f2b565b91610f5c6040519384610f09565b829481845260208094019160051b81019283116100be57905b828210610f825750505050565b81356001600160a01b03811681036100be578152908301908301610f75565b8051156108135760200190565b80518210156108135760209160051b010190565b6000198114610d6b5760010190565b91908203918211610d6b57565b908160209103126100be57516001600160a01b03811681036100be5790565b600282511061118b578192915161101381610f2b565b9160409161102383519485610f09565b808452611032601f1991610f2b565b01946020953687860137839161104785610fa1565b526001600160a01b037f0000000000000000000000000000000000000000000000000000000000000000811696909260005b83516000198101908111610d6b5781101561118157846110998286610fae565b51166001820190818311610d6b57846110ef918c896110b8868b610fae565b518c5163e6a4390560e01b81526001600160a01b039485166004820152911690921660248301529092839190829081906044820190565b03915afa9081156111765761113d848b61113761112f8397968d61114a9a8e611144998f60009561114f575b50509061112791610fae565b511690611283565b939092610fae565b51611347565b918a610fae565b52610fc2565b611079565b61112793929550908161116d92903d1061057c5761056e8183610f09565b9390918f61111b565b88513d6000823e3d90fd5b5096505050505050565b60405162461bcd60e51b815260206004820152600c60248201526b0929cac82989288bea082a8960a31b6044820152606490fd5b156111c657565b60405162461bcd60e51b81526020600482015260076024820152661156141254915160ca1b6044820152606490fd5b908160209103126100be575180151581036100be5790565b91908260409103126100be576020825192015190565b1561122a57565b60405162461bcd60e51b815260206004820152601a60248201527f494e53554646494349454e545f4f55545055545f414d4f554e540000000000006044820152606490fd5b356001600160a01b03811681036100be5790565b60408051630dfe168160e01b81526001600160a01b039283169493919290602081600481895afa90811561131c57600495968591600093611327575b508151630240bc6b60e21b815296879182905afa94851561131c5760009485966112f9575b505081169116146000146112f55791565b9091565b611313929650839550803d1061096a576109628183610f09565b949093386112e4565b84513d6000823e3d90fd5b61134091935060203d811161057c5761056e8183610f09565b91386112bf565b91909180156113f15781156113b3576103e5808202918083048203610d6b57830202918183041481151715610d6b576103e892838102938185041490151715610d6b578201809211610d6b57811561139d570490565b634e487b7160e01b600052601260045260246000fd5b60405162461bcd60e51b8152602060048201526016602482015275494e53554646494349454e545f4c495155494449545960501b6044820152606490fd5b60405162461bcd60e51b815260206004820152601960248201527f494e53554646494349454e545f494e5055545f414d4f554e54000000000000006044820152606490fdfea26469706673582212207d0e3e4f399fd131522f7d3bca5ccea3e5c0a8b3ba312d519264851507e9887f64736f6c63430008140033",
  "linkReferences": {},
  "deployedLinkReferences": {}
}