{
  "_format": "hh-sol-artifact-1",
  "contractName": "OrderBook",
  "sourceName": "contracts/OrderBook.sol",
  "abi": [
    {
      "inputs": [
        {
          "internalType": "address",
          "name": "_routerAddress",
          "type": "address"
        }
      ],
      "stateMutability": "nonpayable",
      "type": "constructor"
    },
    {
      "anonymous": false,
      "inputs": [
        {
          "indexed": false,
          "internalType": "uint256",
          "name": "id",
          "type": "uint256"
        }
      ],
      "name": "OrderCancelled",
      "type": "event"
    },
    {
      "anonymous": false,
      "inputs": [
        {
          "indexed": false,
          "internalType": "uint256",
          "name": "id",
          "type": "uint256"
        },
        {
          "indexed": false,
          "internalType": "address",
          "name": "owner",
          "type": "address"
        },
        {
          "indexed": false,
          "internalType": "address",
          "name": "tokenIn",
          "type": "address"
        },
        {
          "indexed": false,
          "internalType": "address",
          "name": "tokenOut",
          "type": "address"
        },
        {
          "indexed": false,
          "internalType": "uint256",
          "name": "amountIn",
          "type": "uint256"
        },
        {
          "indexed": false,
          "internalType": "uint256",
          "name": "amountOutMin",
          "type": "uint256"
        }
      ],
      "name": "OrderCreated",
      "type": "event"
    },
    {
      "anonymous": false,
      "inputs": [
        {
          "indexed": false,
          "internalType": "uint256",
          "name": "id",
          "type": "uint256"
        },
        {
          "indexed": false,
          "internalType": "uint256",
          "name": "amountOut",
          "type": "uint256"
        }
      ],
      "name": "OrderFilled",
      "type": "event"
    },
    {
      "inputs": [
        {
          "internalType": "uint256",
          "name": "_orderId",
          "type": "uint256"
        }
      ],
      "name": "cancelOrder",
      "outputs": [],
      "stateMutability": "nonpayable",
      "type": "function"
    },
    {
      "inputs": [
        {
          "internalType": "address",
          "name": "_tokenIn",
          "type": "address"
        },
        {
          "internalType": "address",
          "name": "_tokenOut",
          "type": "address"
        },
        {
          "internalType": "uint256",
          "name": "_amountIn",
          "type": "uint256"
        },
        {
          "internalType": "uint256",
          "name": "_amountOutMin",
          "type": "uint256"
        }
      ],
      "name": "createOrder",
      "outputs": [],
      "stateMutability": "nonpayable",
      "type": "function"
    },
    {
      "inputs": [
        {
          "internalType": "uint256",
          "name": "_orderId",
          "type": "uint256"
        }
      ],
      "name": "executeOrder",
      "outputs": [],
      "stateMutability": "nonpayable",
      "type": "function"
    },
    {
      "inputs": [],
      "name": "nextOrderId",
      "outputs": [
        {
          "internalType": "uint256",
          "name": "",
          "type": "uint256"
        }
      ],
      "stateMutability": "view",
      "type": "function"
    },
    {
      "inputs": [
        {
          "internalType": "uint256",
          "name": "",
          "type": "uint256"
        }
      ],
      "name": "orders",
      "outputs": [
        {
          "internalType": "uint256",
          "name": "id",
          "type": "uint256"
        },
        {
          "internalType": "address",
          "name": "owner",
          "type": "address"
        },
        {
          "internalType": "address",
          "name": "tokenIn",
          "type": "address"
        },
        {
          "internalType": "address",
          "name": "tokenOut",
          "type": "address"
        },
        {
          "internalType": "uint256",
          "name": "amountIn",
          "type": "uint256"
        },
        {
          "internalType": "uint256",
          "name": "amountOutMin",
          "type": "uint256"
        },
        {
          "internalType": "enum OrderBook.Status",
          "name": "status",
          "type": "uint8"
        }
      ],
      "stateMutability": "view",
      "type": "function"
    },
    {
      "inputs": [],
      "name": "router",
      "outputs": [
        {
          "internalType": "contract IAMMRouter",
          "name": "",
          "type": "address"
        }
      ],
      "stateMutability": "view",
      "type": "function"
    }
  ],
  "bytecode": "0x60a03461007357601f610ab638819003918201601f19168301916001600160401b038311848410176100785780849260209460405283398101031261007357516001600160a01b0381169081900361007357608052604051610a27908161008f823960805181818161033701526104a00152f35b600080fd5b634e487b7160e01b600052604160045260246000fdfe6080604081815260048036101561001557600080fd5b600092833560e01c9081632a58b3301461085757508063514fcac7146106fc57806394f6113414610403578063a85c38ef1461036a578063f887ea40146103225763fe8799181461006557600080fd5b3461031e57608036600319011261031e576001600160a01b03918135838116919082900361031a576024918235918583168093036103165760443593606435958515158061030d575b156102c05784841461027f5782516323b872dd60e01b815233828201523083820152604481018790526020929083816064818e8a5af1801561027557610248575b5089549884519060e0820182811067ffffffffffffffff82111761023657918a8a8a8f958f90958c8c8960018e60069b8452868b52808b0196338852848c0195865260608c0198895260808c01998a5260a08c019a8b5260c08c019d8e5283525220965187558160018801935116926bffffffffffffffffffffffff60a01b93848254161790558160028801915116838254161790556003860192511690825416179055518683015551600582015501905160038110156102245760ff801983541691161790558954916000198314610213578a7fa4be1e061958d160de04db54668a64922c36d2765b16644ae91acf127708970e60c08c8c8c8c8c8c8c60018d018a55815196875233908701528501526060840152608083015260a0820152a180f35b634e487b7160e01b8b526011905289fd5b634e487b7160e01b8c5260218452828cfd5b634e487b7160e01b8d5260418552838dfd5b61026790843d861161026e575b61025f8183610871565b8101906108a9565b50386100ef565b503d610255565b85513d8d823e3d90fd5b601b606492602085519362461bcd60e51b85528401528201527f4f72646572426f6f6b3a204944454e544943414c5f544f4b454e5300000000006044820152fd5b6023608492602085519362461bcd60e51b85528401528201527f4f72646572426f6f6b3a20414d4f554e54535f4d5553545f42455f504f53495460448201526249564560e81b6064820152fd5b508615156100ae565b8680fd5b8480fd5b8280fd5b505034610366578160031936011261036657517f00000000000000000000000000000000000000000000000000000000000000006001600160a01b03168152602090f35b5080fd5b50919034610366576020366003190112610366578235825260016020528082209182549260018060a01b03928360018301541693806002840154169060038401541690878401549260ff600660058701549601541696815198895260208901528701526060860152608085015260a084015260038210156103f05760e0838360c0820152f35b634e487b7160e01b815260218452602490fd5b5091346106f95760208060031936011261036657833580835260018252838320600681019260ff84541660038110156106e65761044090156108c6565b8551936060850185811067ffffffffffffffff8211176106d3578752600285528185019287368537600281015486516001600160a01b03959186169190156106c05790808a9b929a98999a528560038401541661049c8a610912565b52857f00000000000000000000000000000000000000000000000000000000000000001691808401968a8c89549e8f6104f28251948593849363d06ca61f60e01b855289850152602484015260448301906109b4565b0381885afa9081156106b65790610512918e809261069b575b5050610912565b5197600586019384548a10610658579c88819f8d9e9f61056191849b9c9d9e9f5194858094819363095ea7b360e01b83528d8c840160209093929193604081019460018060a01b031681520152565b03925af1801561064e579160019189959493610631575b50549454960154166105af8c519d8e97889687956338ed173960e01b8752860152602485015260a0604485015260a48401906109b4565b90606483015242608483015203925af1958615610627577ff5daccd6d0627e52ed76e2a229c88b20534395c6f7702dae1cec76ba612564e796610605575b50805460ff191660011790558351928352820152a180f35b610620903d808a833e6106188183610871565b810190610938565b50386105ed565b85513d89823e3d90fd5b610647908c8d3d1061026e5761025f8183610871565b5038610578565b8d513d8a823e3d90fd5b8b5162461bcd60e51b81528085018a9052601860248201527f4f72646572426f6f6b3a2050524943455f4e4f545f4d455400000000000000006044820152606490fd5b6106af92503d8091833e6106188183610871565b388e61050b565b8b513d8f823e3d90fd5b634e487b7160e01b895260328b52602489fd5b634e487b7160e01b875260418952602487fd5b634e487b7160e01b865260218852602486fd5b80fd5b50919034610366576020908160031936011261031e578335908184526001835280842060018060a01b03806001830154169081330361081d5760068301805460ff8116600381101561080a579988959381959360028c9d946107626107a89e96156108c6565b60ff191617905560028501549190940154875163a9059cbb60e01b81526001600160a01b0390941695840195865260208601529198899493909216928492839160400190565b03925af1938415610800577f61b9399f2f0f32ca39ce8d7be32caed5ec22fe07a6daba3a467ed479ec606582946107e3575b5051908152a180f35b6107f990843d861161026e5761025f8183610871565b50386107da565b81513d87823e3d90fd5b634e487b7160e01b8a5260218b5260248afd5b835162461bcd60e51b8152808901879052601460248201527327b93232b92137b7b59d102727aa2fa7aba722a960611b6044820152606490fd5b849034610366578160031936011261036657602091548152f35b90601f8019910116810190811067ffffffffffffffff82111761089357604052565b634e487b7160e01b600052604160045260246000fd5b908160209103126108c1575180151581036108c15790565b600080fd5b156108cd57565b60405162461bcd60e51b815260206004820152601960248201527f4f72646572426f6f6b3a204f524445525f4e4f545f4f50454e000000000000006044820152606490fd5b8051600110156109225760400190565b634e487b7160e01b600052603260045260246000fd5b9060209081838203126108c157825167ffffffffffffffff938482116108c1570181601f820112156108c1578051938411610893578360051b906040519461098285840187610871565b855283808601928201019283116108c1578301905b8282106109a5575050505090565b81518152908301908301610997565b90815180825260208080930193019160005b8281106109d4575050505090565b83516001600160a01b0316855293810193928101926001016109c656fea2646970667358221220016486275ac48eeee9fe4b43a4aec7ef1b80c35d616895f442a1a93cac7944f064736f6c63430008140033",
  "linkReferences": {},
  "deployedLinkReferences": {}
}